{"abi":[{"type":"constructor","inputs":[{"name":"_router","type":"address","internalType":"address"},{"name":"_usdcTokenAddress","type":"address","internalType":"address"}],"stateMutability":"nonpayable"},{"type":"receive","stateMutability":"payable"},{"type":"function","name":"campaigns","inputs":[{"name":"","type":"bytes32","internalType":"bytes32"}],"outputs":[{"name":"videoId","type":"string","internalType":"string"},{"name":"owner","type":"address","internalType":"address"},{"name":"reserve","type":"uint256","internalType":"uint256"}],"stateMutability":"view"},{"type":"function","name":"chainIdTochainSelectorMapping","inputs":[{"name":"","type":"uint256","internalType":"uint256"}],"outputs":[{"name":"","type":"uint64","internalType":"uint64"}],"stateMutability":"view"},{"type":"function","name":"changeVideoId","inputs":[{"name":"_campaignId","type":"bytes32","internalType":"bytes32"},{"name":"_newVideoId","type":"string","internalType":"string"}],"outputs":[],"stateMutability":"nonpayable"},{"type":"function","name":"chargeFee","inputs":[{"name":"_campaignId","type":"bytes32","internalType":"bytes32"},{"name":"_feeAmount","type":"uint256","internalType":"uint256"}],"outputs":[],"stateMutability":"nonpayable"},{"type":"function","name":"execute","inputs":[{"name":"from","type":"address","internalType":"address"},{"name":"value","type":"uint256","internalType":"uint256"},{"name":"validAfter","type":"uint256","internalType":"uint256"},{"name":"validBefore","type":"uint256","internalType":"uint256"},{"name":"nonce","type":"bytes32","internalType":"bytes32"},{"name":"signature","type":"bytes","internalType":"bytes"},{"name":"targetChainId","type":"uint256","internalType":"uint256"},{"name":"receiver","type":"address","internalType":"address"},{"name":"_campaignId","type":"bytes32","internalType":"bytes32"},{"name":"_feeAmount","type":"uint256","internalType":"uint256"}],"outputs":[],"stateMutability":"nonpayable"},{"type":"function","name":"fundCampaign","inputs":[{"name":"_campaignId","type":"bytes32","internalType":"bytes32"}],"outputs":[],"stateMutability":"payable"},{"type":"function","name":"getCampaign","inputs":[{"name":"_campaignId","type":"bytes32","internalType":"bytes32"}],"outputs":[{"name":"","type":"tuple","internalType":"struct CirclePay.Campaign","components":[{"name":"videoId","type":"string","internalType":"string"},{"name":"owner","type":"address","internalType":"address"},{"name":"reserve","type":"uint256","internalType":"uint256"}]}],"stateMutability":"view"},{"type":"function","name":"getCampaignsByOwner","inputs":[{"name":"_owner","type":"address","internalType":"address"}],"outputs":[{"name":"","type":"bytes32[]","internalType":"bytes32[]"}],"stateMutability":"view"},{"type":"function","name":"getEstimatedFees","inputs":[{"name":"__destinationChainSelector","type":"uint64","internalType":"uint64"},{"name":"_receiver","type":"address","internalType":"address"},{"name":"_token","type":"address","internalType":"address"},{"name":"_amount","type":"uint256","internalType":"uint256"}],"outputs":[{"name":"","type":"uint256","internalType":"uint256"}],"stateMutability":"view"},{"type":"function","name":"owner","inputs":[],"outputs":[{"name":"","type":"address","internalType":"address"}],"stateMutability":"view"},{"type":"function","name":"registerCampaign","inputs":[{"name":"_videoId","type":"string","internalType":"string"}],"outputs":[],"stateMutability":"payable"},{"type":"function","name":"renounceOwnership","inputs":[],"outputs":[],"stateMutability":"nonpayable"},{"type":"function","name":"setChainSelector","inputs":[{"name":"_chainSelector","type":"uint64","internalType":"uint64"},{"name":"_chainId","type":"uint256","internalType":"uint256"}],"outputs":[],"stateMutability":"nonpayable"},{"type":"function","name":"transferOwnership","inputs":[{"name":"newOwner","type":"address","internalType":"address"}],"outputs":[],"stateMutability":"nonpayable"},{"type":"function","name":"transferUsdcCrossChain","inputs":[{"name":"from","type":"address","internalType":"address"},{"name":"value","type":"uint256","internalType":"uint256"},{"name":"validAfter","type":"uint256","internalType":"uint256"},{"name":"validBefore","type":"uint256","internalType":"uint256"},{"name":"nonce","type":"bytes32","internalType":"bytes32"},{"name":"signature","type":"bytes","internalType":"bytes"},{"name":"targetChainId","type":"uint256","internalType":"uint256"},{"name":"receiver","type":"address","internalType":"address"}],"outputs":[],"stateMutability":"nonpayable"},{"type":"function","name":"usdcToken","inputs":[],"outputs":[{"name":"","type":"address","internalType":"contract IUSDC"}],"stateMutability":"view"},{"type":"function","name":"withdraw","inputs":[{"name":"_beneficiary","type":"address","internalType":"address"}],"outputs":[],"stateMutability":"nonpayable"},{"type":"function","name":"withdrawToken","inputs":[{"name":"_beneficiary","type":"address","internalType":"address"},{"name":"_token","type":"address","internalType":"address"}],"outputs":[],"stateMutability":"nonpayable"},{"type":"event","name":"CampaignFunded","inputs":[{"name":"campaignId","type":"bytes32","indexed":false,"internalType":"bytes32"},{"name":"funder","type":"address","indexed":false,"internalType":"address"},{"name":"amount","type":"uint256","indexed":false,"internalType":"uint256"}],"anonymous":false},{"type":"event","name":"CampaignRegistered","inputs":[{"name":"campaignId","type":"bytes32","indexed":false,"internalType":"bytes32"},{"name":"owner","type":"address","indexed":false,"internalType":"address"}],"anonymous":false},{"type":"event","name":"FeeCharged","inputs":[{"name":"campaignId","type":"bytes32","indexed":false,"internalType":"bytes32"},{"name":"feeAmount","type":"uint256","indexed":false,"internalType":"uint256"}],"anonymous":false},{"type":"event","name":"OwnershipTransferred","inputs":[{"name":"previousOwner","type":"address","indexed":true,"internalType":"address"},{"name":"newOwner","type":"address","indexed":true,"internalType":"address"}],"anonymous":false},{"type":"error","name":"FailedToWithdrawEth","inputs":[{"name":"owner","type":"address","internalType":"address"},{"name":"target","type":"address","internalType":"address"},{"name":"value","type":"uint256","internalType":"uint256"}]},{"type":"error","name":"NotEnoughBalance","inputs":[{"name":"currentBalance","type":"uint256","internalType":"uint256"},{"name":"calculatedFees","type":"uint256","internalType":"uint256"}]},{"type":"error","name":"NothingToWithdraw","inputs":[]},{"type":"error","name":"OwnableInvalidOwner","inputs":[{"name":"owner","type":"address","internalType":"address"}]},{"type":"error","name":"OwnableUnauthorizedAccount","inputs":[{"name":"account","type":"address","internalType":"address"}]}],"bytecode":{"object":"0x60806040523480156200001157600080fd5b5060405162001b8d38038062001b8d833981016040819052620000349162000106565b33806200005b57604051631e4fbdf760e01b81526000600482015260240160405180910390fd5b620000668162000099565b50600180546001600160a01b039384166001600160a01b031991821617909155600280549290931691161790556200013e565b600080546001600160a01b038381166001600160a01b0319831681178455604051919092169283917f8be0079c531659141344cd1fd0a4f28419497f9722a3daafe3b4186f6b6457e09190a35050565b80516001600160a01b03811681146200010157600080fd5b919050565b600080604083850312156200011a57600080fd5b6200012583620000e9565b91506200013560208401620000e9565b90509250929050565b611a3f806200014e6000396000f3fe60806040526004361061010d5760003560e01c80638da5cb5b11610095578063bc9d87f311610064578063bc9d87f3146102e8578063cabe0452146102fb578063e645cf2314610328578063f2fde38b14610348578063f4c5f43e1461036857600080fd5b80638da5cb5b146102685780639eca2f1e14610286578063b7b8d5fd146102b5578063ba21007b146102d557600080fd5b806351bdebb9116100dc57806351bdebb9146101b857806351cff8d9146101e5578063715018a61461020557806371a344af1461021a5780638a1744491461024857600080fd5b8063013fdcc014610119578063095f3e051461013b57806311eac8551461015b5780633aeac4e11461019857600080fd5b3661011457005b600080fd5b34801561012557600080fd5b5061013961013436600461117b565b6103b6565b005b34801561014757600080fd5b50610139610156366004611284565b61040a565b34801561016757600080fd5b5060025461017b906001600160a01b031681565b6040516001600160a01b0390911681526020015b60405180910390f35b3480156101a457600080fd5b506101396101b3366004611327565b6104aa565b3480156101c457600080fd5b506101d86101d336600461135a565b6105b9565b60405161018f919061137c565b3480156101f157600080fd5b5061013961020036600461135a565b610625565b34801561021157600080fd5b506101396106e1565b34801561022657600080fd5b5061023a6102353660046113d7565b6106f5565b60405190815260200161018f565b34801561025457600080fd5b50610139610263366004611422565b610786565b34801561027457600080fd5b506000546001600160a01b031661017b565b34801561029257600080fd5b506102a66102a136600461144c565b6107bd565b60405161018f939291906114ab565b3480156102c157600080fd5b506101396102d03660046114d9565b610871565b6101396102e3366004611567565b61091d565b6101396102f636600461144c565b610ac4565b34801561030757600080fd5b5061031b61031636600461144c565b610b57565b60405161018f91906115a8565b34801561033457600080fd5b506101396103433660046115ef565b610c7e565b34801561035457600080fd5b5061013961036336600461135a565b610d64565b34801561037457600080fd5b5061039e61038336600461144c565b6003602052600090815260409020546001600160401b031681565b6040516001600160401b03909116815260200161018f565b600083815260046020526040902060018101546001600160a01b03166103f75760405162461bcd60e51b81526004016103ee90611611565b60405180910390fd5b806104038385836116d2565b5050505050565b8346036104845760025460405163cf09299560e01b81526001600160a01b039091169063cf0929959061044d908d9087908e908e908e908e908e90600401611791565b600060405180830381600087803b15801561046757600080fd5b505af115801561047b573d6000803e3d6000fd5b50505050610494565b6104948a8a8a8a8a8a8a8a610871565b61049e8282610c7e565b50505050505050505050565b6104b2610da2565b6040516370a0823160e01b81523060048201526000906001600160a01b038316906370a0823190602401602060405180830381865afa1580156104f9573d6000803e3d6000fd5b505050506040513d601f19601f8201168201806040525081019061051d91906117e1565b90508060000361054057604051630686827b60e51b815260040160405180910390fd5b60405163a9059cbb60e01b81526001600160a01b0384811660048301526024820183905283169063a9059cbb906044016020604051808303816000875af115801561058f573d6000803e3d6000fd5b505050506040513d601f19601f820116820180604052508101906105b391906117fa565b50505050565b6001600160a01b03811660009081526005602090815260409182902080548351818402810184019094528084526060939283018282801561061957602002820191906000526020600020905b815481526020019060010190808311610605575b50505050509050919050565b61062d610da2565b47600081900361065057604051630686827b60e51b815260040160405180910390fd5b6000826001600160a01b03168260405160006040518083038185875af1925050503d806000811461069d576040519150601f19603f3d011682016040523d82523d6000602084013e6106a2565b606091505b50509050806106dc57604051639d11f56360e01b81523360048201526001600160a01b0384166024820152604481018390526064016103ee565b505050565b6106e9610da2565b6106f36000610dcf565b565b6000806107058585856000610e1f565b6001546040516320487ded60e01b81529192506001600160a01b03169081906320487ded9061073a908a90869060040161181c565b602060405180830381865afa158015610757573d6000803e3d6000fd5b505050506040513d601f19601f8201168201806040525081019061077b91906117e1565b979650505050505050565b61078e610da2565b6000908152600360205260409020805467ffffffffffffffff19166001600160401b0392909216919091179055565b6004602052600090815260409020805481906107d890611648565b80601f016020809104026020016040519081016040528092919081815260200182805461080490611648565b80156108515780601f1061082657610100808354040283529160200191610851565b820191906000526020600020905b81548152906001019060200180831161083457829003601f168201915b50505050600183015460029093015491926001600160a01b031691905083565b60025460405163cf09299560e01b81526001600160a01b039091169063cf092995906108ad908b9030908c908c908c908c908c90600401611791565b600060405180830381600087803b1580156108c757600080fd5b505af11580156108db573d6000803e3d6000fd5b50505060008381526003602052604090205460025461091292506001600160401b039091169083906001600160a01b03168a610f8f565b505050505050505050565b6040516bffffffffffffffffffffffff193360601b16602082015242603482015260009060540160408051601f198184030181529181528151602092830120600081815260049093529120600101549091506001600160a01b0316156109c55760405162461bcd60e51b815260206004820152601760248201527f43616d706169676e20616c72656164792065786973747300000000000000000060448201526064016103ee565b604051806060016040528084848080601f01602080910402602001604051908101604052809392919081815260200183838082843760009201829052509385525050336020808501919091523460409485015285835260049052502081518190610a2f90826118f8565b50602082810151600183810180546001600160a01b0319166001600160a01b0390931692909217909155604093840151600290930192909255336000818152600583528481208054948501815581528290209092018490558251848152908101919091527fa5ad0d6d3cd789710276999982a8c0d3afbbf7ba34e7ccb419748e4fd4dafef091015b60405180910390a1505050565b600081815260046020526040902060018101546001600160a01b0316610afc5760405162461bcd60e51b81526004016103ee90611611565b34816002016000828254610b1091906119cd565b909155505060408051838152336020820152348183015290517ff5317246b1280f9cdfa4e36ed4cf0d02b1f02180e7ea02f9271cb356eb37469e9181900360600190a15050565b610b8460405180606001604052806060815260200160006001600160a01b03168152602001600081525090565b600082815260046020526040808220815160608101909252805482908290610bab90611648565b80601f0160208091040260200160405190810160405280929190818152602001828054610bd790611648565b8015610c245780601f10610bf957610100808354040283529160200191610c24565b820191906000526020600020905b815481529060010190602001808311610c0757829003601f168201915b505050918352505060018201546001600160a01b039081166020808401919091526002909301546040909201919091529082015191925016610c785760405162461bcd60e51b81526004016103ee90611611565b92915050565b600082815260046020526040902060018101546001600160a01b0316610cb65760405162461bcd60e51b81526004016103ee90611611565b8181600201541015610d155760405162461bcd60e51b815260206004820152602260248201527f496e73756666696369656e74207265736572766520746f206368617267652066604482015261656560f01b60648201526084016103ee565b81816002016000828254610d2991906119e0565b909155505060408051848152602081018490527f2194b05805488d1ae5dec3e2e79f37a4606b7f3aa1e808a97259abc18dc5148a9101610ab7565b610d6c610da2565b6001600160a01b038116610d9657604051631e4fbdf760e01b8152600060048201526024016103ee565b610d9f81610dcf565b50565b6000546001600160a01b031633146106f35760405163118cdaa760e01b81523360048201526024016103ee565b600080546001600160a01b038381166001600160a01b0319831681178455604051919092169283917f8be0079c531659141344cd1fd0a4f28419497f9722a3daafe3b4186f6b6457e09190a35050565b610e5a6040518060a0016040528060608152602001606081526020016060815260200160006001600160a01b03168152602001606081525090565b604080516001808252818301909252600091816020015b6040805180820190915260008082526020820152815260200190600190039081610e715790505090506040518060400160405280866001600160a01b031681526020018581525081600081518110610ecb57610ecb6119f3565b60209081029190910101526040805160a081019091526001600160a01b03871660c08201528060e081016040516020818303038152906040528152602001604051806020016040528060008152508152602001828152602001846001600160a01b03168152602001610f836040518060200160405280600081525060408051915160248084019190915281518084039091018152604490920190526020810180516001600160e01b03166397a657c960e01b17905290565b90529695505050505050565b600080610f9f8585856000610e1f565b6001546040516320487ded60e01b81529192506000916001600160a01b03909116906320487ded90610fd7908a90869060040161181c565b602060405180830381865afa158015610ff4573d6000803e3d6000fd5b505050506040513d601f19601f8201168201806040525081019061101891906117e1565b90504781111561104457604051634787a10360e11b8152476004820152602481018290526044016103ee565b60015460405163095ea7b360e01b81526001600160a01b039182166004820152602481018690529086169063095ea7b3906044016020604051808303816000875af1158015611097573d6000803e3d6000fd5b505050506040513d601f19601f820116820180604052508101906110bb91906117fa565b506001546040516396f4e9f960e01b81526001600160a01b03909116906396f4e9f99083906110f0908b90879060040161181c565b60206040518083038185885af115801561110e573d6000803e3d6000fd5b50505050506040513d601f19601f8201168201806040525081019061077b91906117e1565b60008083601f84011261114557600080fd5b5081356001600160401b0381111561115c57600080fd5b60208301915083602082850101111561117457600080fd5b9250929050565b60008060006040848603121561119057600080fd5b8335925060208401356001600160401b038111156111ad57600080fd5b6111b986828701611133565b9497909650939450505050565b80356001600160a01b03811681146111dd57600080fd5b919050565b634e487b7160e01b600052604160045260246000fd5b600082601f83011261120957600080fd5b81356001600160401b0380821115611223576112236111e2565b604051601f8301601f19908116603f0116810190828211818310171561124b5761124b6111e2565b8160405283815286602085880101111561126457600080fd5b836020870160208301376000602085830101528094505050505092915050565b6000806000806000806000806000806101408b8d0312156112a457600080fd5b6112ad8b6111c6565b995060208b0135985060408b0135975060608b0135965060808b0135955060a08b01356001600160401b038111156112e457600080fd5b6112f08d828e016111f8565b95505060c08b0135935061130660e08c016111c6565b92506101008b013591506101208b013590509295989b9194979a5092959850565b6000806040838503121561133a57600080fd5b611343836111c6565b9150611351602084016111c6565b90509250929050565b60006020828403121561136c57600080fd5b611375826111c6565b9392505050565b6020808252825182820181905260009190848201906040850190845b818110156113b457835183529284019291840191600101611398565b50909695505050505050565b80356001600160401b03811681146111dd57600080fd5b600080600080608085870312156113ed57600080fd5b6113f6856113c0565b9350611404602086016111c6565b9250611412604086016111c6565b9396929550929360600135925050565b6000806040838503121561143557600080fd5b61143e836113c0565b946020939093013593505050565b60006020828403121561145e57600080fd5b5035919050565b6000815180845260005b8181101561148b5760208185018101518683018201520161146f565b506000602082860101526020601f19601f83011685010191505092915050565b6060815260006114be6060830186611465565b6001600160a01b039490941660208301525060400152919050565b600080600080600080600080610100898b0312156114f657600080fd5b6114ff896111c6565b97506020890135965060408901359550606089013594506080890135935060a08901356001600160401b0381111561153657600080fd5b6115428b828c016111f8565b93505060c0890135915061155860e08a016111c6565b90509295985092959890939650565b6000806020838503121561157a57600080fd5b82356001600160401b0381111561159057600080fd5b61159c85828601611133565b90969095509350505050565b6020815260008251606060208401526115c46080840182611465565b60208501516001600160a01b0316604085810191909152909401516060909301929092525090919050565b6000806040838503121561160257600080fd5b50508035926020909101359150565b60208082526017908201527f43616d706169676e20646f6573206e6f74206578697374000000000000000000604082015260600190565b600181811c9082168061165c57607f821691505b60208210810361167c57634e487b7160e01b600052602260045260246000fd5b50919050565b601f8211156106dc576000816000526020600020601f850160051c810160208610156116ab5750805b601f850160051c820191505b818110156116ca578281556001016116b7565b505050505050565b6001600160401b038311156116e9576116e96111e2565b6116fd836116f78354611648565b83611682565b6000601f84116001811461173157600085156117195750838201355b600019600387901b1c1916600186901b178355610403565b600083815260209020601f19861690835b828110156117625786850135825560209485019460019092019101611742565b508682101561177f5760001960f88860031b161c19848701351681555b505060018560011b0183555050505050565b600060018060a01b03808a1683528089166020840152508660408301528560608301528460808301528360a083015260e060c08301526117d460e0830184611465565b9998505050505050505050565b6000602082840312156117f357600080fd5b5051919050565b60006020828403121561180c57600080fd5b8151801515811461137557600080fd5b600060406001600160401b03851683526020604081850152845160a0604086015261184a60e0860182611465565b905081860151603f19808784030160608801526118678383611465565b6040890151888203830160808a01528051808352908601945060009350908501905b808410156118bb57845180516001600160a01b0316835286015186830152938501936001939093019290860190611889565b5060608901516001600160a01b031660a08901526080890151888203830160c08a015295506118ea8187611465565b9a9950505050505050505050565b81516001600160401b03811115611911576119116111e2565b6119258161191f8454611648565b84611682565b602080601f83116001811461195a57600084156119425750858301515b600019600386901b1c1916600185901b1785556116ca565b600085815260208120601f198616915b828110156119895788860151825594840194600190910190840161196a565b50858210156119a75787850151600019600388901b60f8161c191681555b5050505050600190811b01905550565b634e487b7160e01b600052601160045260246000fd5b80820180821115610c7857610c786119b7565b81810381811115610c7857610c786119b7565b634e487b7160e01b600052603260045260246000fdfea26469706673582212206f46eec910f5e7a31defbf444e4b1853dcc3faa945da3455b0135c35e76d87c464736f6c63430008170033","linkReferences":{}},"methodIdentifiers":{"campaigns(bytes32)":"9eca2f1e","chainIdTochainSelectorMapping(uint256)":"f4c5f43e","changeVideoId(bytes32,string)":"013fdcc0","chargeFee(bytes32,uint256)":"e645cf23","execute(address,uint256,uint256,uint256,bytes32,bytes,uint256,address,bytes32,uint256)":"095f3e05","fundCampaign(bytes32)":"bc9d87f3","getCampaign(bytes32)":"cabe0452","getCampaignsByOwner(address)":"51bdebb9","getEstimatedFees(uint64,address,address,uint256)":"71a344af","owner()":"8da5cb5b","registerCampaign(string)":"ba21007b","renounceOwnership()":"715018a6","setChainSelector(uint64,uint256)":"8a174449","transferOwnership(address)":"f2fde38b","transferUsdcCrossChain(address,uint256,uint256,uint256,bytes32,bytes,uint256,address)":"b7b8d5fd","usdcToken()":"11eac855","withdraw(address)":"51cff8d9","withdrawToken(address,address)":"3aeac4e1"},"id":27}